:020000040000FA
:060000000A128A11FC2F18
:100EEA00F701831603138601831203138601F301A4
:100EFA00F4010130F000770A842F0310F00DFF3E51
:100F0A00031D822F70088312031386000130F0003C
:100F1A007008F7078230F100DD30F000F00B932FF4
:100F2A00F10B932F982F04307706031D9D2F9E2FC8
:100F3A009F2FF7010130F3070318F40A0030F40772
:100F4A007408803AFF0080307F02031DAE2F3030D4
:100F5A007302031CB12FB22F7E2F0630F20013301A
:100F6A00F100AD30F000F00BB82FF10BB82FF20BF7
:100F7A00B82FBF2FF501F601770AF0000830F1000B
:100F8A000030F200CB2F720DF20CF10CF00BC82FCF
:100F9A0071088312031386000130F0007008F70706
:100FAA008230F100DD30F000F00BD92FF10BD92F90
:100FBA00DE2F04307706031DE32FE42FE52FF70118
:100FCA000130F5070318F60A0030F6077608803A6A
:100FDA00FF0080307F02031DF42F30307502031C9E
:100FEA00F72FF82FC12F7C2F0A128A1100288301AC
:060FFA000A128A11752F96
:02400E00313F40
:00000001FF
